:100000000C949B040C9438270C945F270C94C30425
:100010000C94C3040C94C3040C94C3040C94C30444
:100020000C94C3040C94C3040C94C3040C94C30434
:100030000C94C3040C94291D0C94C3040C94C304A5
:100040000C9486270C94C3040C94C3040C94C3042E
:100050000C94C3040C94C3040C94C3040C94C30404
:100060000C94C3040C94C304521569150E16411563
:1000700048150E160E160E160E160E160E160E1627
:100080000E160E16BE15CB15D8150E160E160E161C
:100090000E160E160E160E160E16ED15F515961BEF
:1000A0000D1C0D1C0D1C0D1C0D1C0D1C0D1C0D1C08
:1000B0000D1C0D1C0D1C0D1C0D1C0D1C0D1C0D1CF8
:1000C0000D1C0D1C0D1C0D1C0D1C0D1C0D1C0D1CE8
:1000D000911B941B9E1BA11BA41BA71BC81B981B39
:1000E000C81BAE1B0D1C0D1C0D1C0D1C0D1C0D1C6E
:1000F000B31B0D1C0D1CB61B0D1CC81BB91BC81B4C
:10010000BC1B0D1C0D1C0D1CC81BBF1BC51BC51B20
:10011000C51B0D1CC21BC21B0D1C0D1CC81BC21B0A
:1001200008000000BE922449123EABAAAA2ABECD06
:10013000CCCC4C3E00000080BEABAAAAAA3E000078
:100140000000BF000000803F000000000008417870
:10015000D3BB4387D1133D190E3CC3BD4282AD2BA7
:100160003E68EC8276BED98FE1A93E4C80EFFFBE9F
:1001700001C4FF7F3F000000000041726475696E9A
:100180006F2042415349430000000000000000007E
:10019000000000000000000000000000000000005F
:1001A0000901000B01000D01000F010011010013F6
:1001B00001001E01001801001501001701001A01BD
:1001C000001D01002001402201002401002601C081
:1001D0007401C02A01402E01403401403801403DE5
:1001E00001404101404601404A01404F0140550154
:1001F000405A01405D01C06201096601096A0100BF
:100200003001016E01057301404301C07701C07CDC
:1002100001408101C08501408901408F0140960164
:10022000409A010EA0010EA7010FAC0140B00140A1
:10023000B60140BF0140C30140CB0100D20140D70D
:100240000140DC0101E40101ED0140F101404261A6
:100250006420706172616D65746572004572726FC1
:100260007220696E2056414C20696E707574004290
:10027000616420737472696E6720696E64657800CA
:1002800042616420617272617920696E64657800F0
:1002900057726F6E672061727261792064696D7345
:1002A0000052455455524E20776974686F7574201A
:1002B000474F535542004D697373696E6720544828
:1002C000454E20696E2049460053544F50207374A8
:1002D0006174656D656E74004E455854207769747D
:1002E000686F757420464F5200427265616B2070D2
:1002F00072657373656400426164206C696E652089
:100300006E756D6265720042616420636F6D6D6130
:100310006E64005661726961626C65206E6F742054
:10032000666F756E6400446976206279207A657222
:100330006F004F7574206F66206D656D6F72790068
:100340004C696E65206E756D62657220746F6F20EA
:1003500062696700537472696E67206578707220F5
:100360006578706563746564004E756D6572696368
:1003700020657870722065787065637465640045E7
:1003800072726F7220696E2065787072004D6973A9
:1003900073696E6720627261636B657400556E7479
:1003A00065726D696E6174656420737472696E67DD
:1003B00000556E657870656374656420696E70754C
:1003C00074004C696E6520746F6F206C6F6E6700EF
:1003D000426164206E756D626572004F4B00DB03F5
:1003E000D003C203B1039D038D037F03690354034C
:1003F00040033203260313030703F702E902D8027E
:10040000C902B602A102900280026F025C024E0293
:1004100062797465732066726565000000000000F3
:1004200000005F00000003000300143E143E14248B
:100430002A7F2A1243330866613649552250000547
:10044000030000001C2241000041221C0014083E51
:10045000081408083E080800503000000808080882
:1004600008006060000020100804023E5149453E2B
:100470000004027F00426151494622414949361831
:1004800014127F1027454545393E4949493201013B
:100490007109073649494936264949493E003636E9
:1004A00000000056360000081422410014141414F1
:1004B00014004122140802015109063E4159555EBB
:1004C0007E0909097E7F494949363E414141227FE3
:1004D0004141413E7F494949417F090909013E4166
:1004E00041493A7F0808087F00417F410030404081
:1004F000403F7F081422417F404040407F020C0271
:100500007F7F0204087F3E4141413E7F0909090681
:100510001E2121215E7F09090976264949493201B8
:10052000017F01013F4040403F1F2040201F7F20AE
:1005300010207F41221C22410708700807615149A1
:100540004543007F41000002040810200000417F65
:100550000004020102044040404040000102040047
:1005600020545454787F44444438384444444438F4
:100570004444447F385454541804047E05050854F8
:1005800054543C7F0804047800447D4000204044DB
:100590003D007F1028440000417F40007C04780427
:1005A000787C0804047838444444387C14141408D3
:1005B000081414147C007C08040448545454200487
:1005C000043F44443C4040207C1C2040201C3C40D4
:1005D00030403C44281028440C5050503C44645453
:1005E0004C44000836414100007F0000414136087C
:1005F0000002010204027F7F7F7F7F000000000075
:100600000000000000000000096000000000000081
:1006100071310000007A736177320000637864659D
:100620003433000020766674723500006E626867AD
:1006300079360000006D6A75373800002C6B696FE1
:10064000303900002E2F6C3B702D00000027005B1E
:100650003D000000000D5D005C0000000000000097
:10066000007F000031003437000000302E32353674
:10067000381B00002B332D2A390000000000000039
:10068000000000000000000000000000000000006A
:10069000097E00000000000051210000005A534173
:1006A0005740000043584445242300002056465438
:1006B000522500004E424847595E0000004D4A5501
:1006C000262A00003C4B494F292800003E3F4C3A67
:1006D000505F00000022007B2B000000000D7D0019
:1006E0007C00000000000000007F00003100343773
:1006F000000000302E323536381B00002B332D2AF7
:1007000039000000000000000000000000000000B0
:1007100000000000000000000000000000000000D9
:1007200000000000000000000000000000000000C9
:1007300000000000000000000000000000000000B9
:1007400000000000000000000000000000000000A9
:100750000000000000000000000000000000000099
:100760000000000000000000000000000000000089
:100770000000000000000000000000000000000079
:100780000000000000000000000000000000000069
:100790000000000000000008000201000003040740
:1007A000000000000000000001020408102040804A
:1007B00001020408102001020408102004040404AB
:1007C00004040404020202020202030303030303FB
:1007D0000000000023002600290000000000250082
:1007E00028002B0000000000240027002A00696E6A
:1007F0006600494E46006E616E004E414E004E410D
:100800004E494E495459494E46CDCCCC3D0AD7238A
:100810003C17B7D13877CC2B329595E6241FB14FD2
:100820000A000020410000C84200401C4620BCBE17
:100830004CCA1B0E5AAEC59D7400407A10F35A0084
:10084000A0724E18090010A5D4E80000E8764817F9
:100850000000E40B54020000CA9A3B000000E1F5DE
:1008600005000080969800000040420F000000A0A4
:100870008601000000102700000000E803000000CF
:10088000006400000000000A0000000000010000F9
:100890000000002C76D888DC674F0823DFC1DFAE6C
:1008A00059E1B1B796E5E3E453C63AE65199769635
:1008B000E8E6C28426EB898C9B62ED407C6FFCEFFE
:1008C000BC9C9F40F2BAA56FA5F490055A2AF75C2C
:1008D000936B6CF9676DC11BFCE0E40D47FEF520DE
:1008E000E6B500D0ED902E030094357705008084A6
:1008F0001E080000204E0A000000C80C33333333BA
:100900000F986E12831141EF8D2114893BE6551625
:10091000CFFEE6DB18D1844B381BF77C1D901DA45D
:10092000BBE424203284725E228100C9F124ECA150
:10093000E53D27004F0511241FBECFEFD8E0DEBFF5
:10094000CDBF12E0A0E0B1E0E0EFF7E602C0059015
:100950000D92A234B107D9F727E0A2E4B2E001C0BA
:100960001D92A93DB207E1F719E0C6E3D9E004C042
:100970002297FE010E94C72CC433D107C9F70E94F9
:1009800082290C94F6330C9400004BEF55E063E0A1
:1009900088E00E947F2662E083E896E00E94C423FC
:1009A0000E94251A85E090E00E94491D0E94BE1D0C
:1009B0008AE791E00E94051F8091D0069091D106B0
:1009C0002091D6063091D706821B930B0E941121ED
:1009D0000E94F41D80E090E00E9413328C3F21F4CD
:1009E00081E08093420208950C947A1DCF93DF93A7
:1009F00080914202811123C00E944020FC0120818D
:100A00002F3399F42181211110C08091D00690914B
:100A1000D1062091D6063091D706821B930B0E94F7
:100A20001121DF91CF910C94F41D40E450E063E478
:100A300072E00E947D10EC01009799F409C00E94B9
:100A400056218DE18093430210924402109242029B
:100A50000E94142083E492E00E94101CEC01009795
:100A6000D9F00E9414206091C1067091C2066115F0
:100A7000710539F080E090E00E94141F8DE20E9421
:100A8000CC1EFE01EE0FFF1FE252FC4F85919491A8
:100A9000DF91CF910C94051FDF91CF91089561E014
:100AA0008BE996E00E9402278AE996E00E947E2662
:100AB00010928606109285068CEF91E09093840642
:100AC0008093830689E0809389068AE080938A0672
:100AD0008BE080938B068DE080938C068CE0809376
:100AE0008D060895DF92EF92FF920F931F93CF939D
:100AF000DF93EC0100E010E08881882309F473C0E3
:100B0000813061F421969E01899187FD03C00E9486
:100B1000CC1EF9CFE901219680583BC0833039F4CF
:100B200069817A818B819C810E94FA1F08C0823082
:100B300041F469817A818B819C810E94141F2596E2
:100B4000DBCF9E012F5F3F4F7901843029F50115DE
:100B5000110541F0C9010E947C1EE70109900020A7
:100B6000E9F7CACF82E20E94CC1EDE2CCF2DED2CFD
:100B7000FC2EE7018991882359F0823211F40E94FA
:100B8000CC1EDC2ECD2FF70180810E94CC1EEFCF32
:100B900082E20E94CC1EB0CF90E0FC01EE0FFF1F5E
:100BA000E80FF91FE657FE4FD490D7FE03C080E24E
:100BB0000E94CC1E888190E0FC01EE0FFF1FE80F21
:100BC000F91FE857FE4F859194910E947C1ED6FE36
:100BD00003C080E20E94CC1E88818F3111F401E0B5
:100BE00010E0E70189CFDF91CF911F910F91FF9026
:100BF000EF90DF900895EF92FF920F931F93CF93A2
:100C0000DF938C017B01C3E8D2E02091D6063091BE
:100C1000D7062D573D4FC217D30700F56A817B8158
:100C20000115110519F06017710798F0E114F1042E
:100C300019F0E616F70668F080E090E00E94141FB5
:100C400080E20E94CC1ECE0104960E9472050E9492
:100C5000142088819981C80FD91FD7CFDF91CF91F8
:100C60001F910F91FF90EF9008952091D60630913B
:100C7000D7062D573D4FE3E8F2E0E217F30750F4B3
:100C8000428153814817590728F440815181E40F6C
:100C9000F51FF3CFCF010895FC0160817181409170
:100CA000D6065091D706461B570B5093D706409354
:100CB000D6064D575D4F481B590B680F791F0C9492
:100CC000BE318F929F92AF92BF92CF92DF92EF92FE
:100CD000FF920F931F93CF93DF937C015B014A0137
:100CE0000E943506EC018091D6069091D7068D576B
:100CF0009D4FC817D90718F4CA80DB8002C0C12CE9
:100D0000D12CCE14DF0419F4CE010E944C06F5015B
:100D10008081882389F184010C5F1F4F4091D606A2
:100D20005091D7069A01200F311F8091D0069091E3
:100D3000D106821793071CF1CD2851F04D575D4F16
:100D40004C1B5D0BBE01CE01800F911F0E94BE3176
:100D500019830883FB82EA82A401B501CE010496BF
:100D60000E94B5318091D6069091D706800F911FD1
:100D70009093D7068093D60681E090E002C080E091
:100D800090E0DF91CF911F910F91FF90EF90DF9056
:100D9000CF90BF90AF909F908F9008954091D206D2
:100DA0005091D3069A012C5F3F4FE091D006F0910D
:100DB000D106E217F30770F0FA01ED57FD4F60839B
:100DC0007183828393833093D3062093D20681E08C
:100DD00090E0089580E090E008958091D20690918F
:100DE000D30604979093D3068093D206FC01ED5767
:100DF000FD4F60817181828193810895CF92DF924E
:100E0000EF92FF920F931F93CF93DF93BC01EC01FE
:100E100009900020E9F72197C81BD90B7E018FEFBD
:100E2000E81AF80A0091D2061091D306C8018E0D77
:100E30009F1D01962091D0063091D106821793070D
:100E4000ACF4C8018D579D4F6C010E94FE31F60134
:100E5000EE0DFF1DF182E0822396C00FD11FD093CB
:100E6000D306C093D20681E090E002C080E090E01B
:100E7000DF91CF911F910F91FF90EF90DF90CF9076
:100E800008958091D2069091D3068D579D4FFC0115
:100E9000329720813181821B930B029708958091B4
:100EA000D2069091D306FC01EF57FD4F208131818E
:100EB000821B930B02979093D3068093D2068D5793
:100EC0009D4F0895CF92DF92EF92FF920F931F9361
:100ED000CF93DF932091D2063091D306F901EF57DB
:100EE000FD4F00811181CEEFDFEFCE01801B910B12
:100EF000820F931FBC016D577D4FFB013297E0803D
:100F0000F180CE19DF09C80FD91FCE018D579D4F33
:100F10006C01C7010197A8018C0D9D1D0E94BE3177
:100F20000E0D1F1DC8010197F601E80FF91F9183EF
:100F300080830F5F1F4F0C0F1D1F1093D30600936C
:100F4000D206DF91CF911F910F91FF90EF90DF902C
:100F5000CF900895CF92DF92EF92FF920F931F935D
:100F6000CF93DF936C010091D2061091D306F80164
:100F7000EF57FD4F20813181EC0121962C173D0761
:100F800054F1C217D30739F1021B130B0250110998
:100F90001093D3060093D206C8018D579D4F7C0154
:100FA000EC0EFD1E672B21F4F7013197108208C06B
:100FB000B9016C1B7D0B680F791FAE010E94BE3119
:100FC000F701D183C083C6010396800F911F9093D0
:100FD000D3068093D206DF91CF911F910F91FF909E
:100FE000EF90DF90CF900895EF92FF920F931F93B1
:100FF000CF93DF93EB010091D2061091D306F80155
:10100000EF57FD4F208131812196281739070CF4C5
:10101000C901BC0161507109CB018C0F9D1F2817BC
:1010200039071CF4E901C61BD70BC217D307F1F02F
:10103000021B130B02501109C8018D579D4F7C01F3
:10104000AE0141505109680F791F0E94BE31F7016E
:10105000EC0FFD1FDF0111971C92D183C0832296F4
:10106000C00FD11FD093D306C093D206DF91CF918A
:101070001F910F91FF90EF900895CF92DF92EF9222
:10108000FF920F931F93CF93DF937C016B01C0916D
:10109000D006D091D106CD57DD4F0091CE061091EC
:1010A000CF060D571D4FC017D10790F42A8130E0AD
:1010B0002C213D21232B39F0B701CE0103960E944C
:1010C000D731892B41F088819981C80FD91FEBCF87
:1010D00080E090E001C0CE01DF91CF911F910F9190
:1010E000FF90EF90DF90CF900895CF93DF93DC01D6
:1010F000ED91FC91C091D006D091D1069E012D5763
:101100003D4FCE0FDF1F8217930749F0AC01421B02
:10111000530BB901C9018E0F9F1F0E94BE31D0939E
:10112000D106C093D006DF91CF910895AF92BF92C0
:10113000CF92DF92EF92FF920F931F93CF93DF93A3
:101140008C016A017B01EC0109900020E9F72197ED
:10115000C81BD90B63E070E00E943D08009739F08E
:10116000C80FD91FCC82DD82EE82FF8228C0CE015B
:1011700008962091D0063091D106281B390B40915A
:10118000D2065091D30624173507E4F03093D106E8
:101190002093D006F901ED57FD4F918380835F01C5
:1011A00083E0A80EB11C81E08283B801C5010E94D2
:1011B000FE31CA0DDB1DC982DA82EB82FC8281E03E
:1011C00090E002C080E090E0DF91CF911F910F91FD
:1011D000FF90EF90DF90CF90BF90AF9008952F9247
:1011E0003F924F925F926F927F928F929F92AF92B7
:1011F000BF92CF92DF92EF92FF920F931F93CF9304
:10120000DF9300D000D000D0CDB7DEB71C012A019B
:101210003B0109831A832B833C83BE82AD82DC01B0
:101220000D900020E9F78D0101501109081B190BE1
:101230005801B4E1AB0EB11C63E070E00E943D08C0
:101240000097B9F0FC01208131814091D006509186
:10125000D106240F351F2A193B094091D20650911F
:10126000D3062417350718F480E090E03EC00E94B2
:1012700075088091D0069091D1068A199B0920911A
:10128000D2063091D3068217930774F39093D10658
:101290008093D006FC01ED57FD4FB182A0825F0123
:1012A00083E0A80EB11C82E08283B101C5010E94D7
:1012B000FE31F8013196EA0DFB1D408251826282B7
:1012C000738289819A81AB81BC8184839583A68353
:1012D000B783C086D186E286F386AD81BE81B587AD
:1012E000A4879786868681E090E026960FB6F894CC
:1012F000DEBF0FBECDBFDF91CF911F910F91FF9049
:10130000EF90DF90CF90BF90AF909F908F907F90A5
:101310006F905F904F903F902F900895CF92DF9203
:10132000EF92FF920F931F93CF93DF937C016B019A
:10133000EC0109900020E9F72197C81BD90BFB01AC
:1013400001900020E9F78E010C5F1F4FE61BF70BA1
:101350000E0F1F1F68E070E00E943D080097B9F073
:10136000FC01208131814091D0065091D106240F9B
:10137000351F201B310B4091D2065091D306241704
:10138000350718F480E090E02AC00E94750820918B
:10139000D0063091D106201B310B8091D20690915E
:1013A000D3062817390774F33093D1062093D0065B
:1013B000F901ED57FD4F118300838F010D5F1F4F22
:1013C00088E08283B701C8010E94FE31CE010196F8
:1013D000B601800F911F0E94FE3181E090E0DF9105
:1013E000CF911F910F91FF90EF90DF90CF900895D4
:1013F0002F923F924F925F926F927F928F929F9225
:10140000AF92BF92CF92DF92EF92FF920F931F9312
:10141000CF93DF9300D000D0CDB7DEB75C018B0156
:10142000FC0101900020E9F73197E81BF90BFC83E0
:10143000EB831F01F6E02F0E311C0E94ED060E9487
:10144000632A6B017C012B012091D2063091D306D7
:101450003A832983812C912C66246394712C841403
:10146000950484F40E94ED060E94632AF301E69F2E
:101470003001E79F700CF69F700C1124FFEF8F1A5C
:101480009F0AEDCF4601880C991C0115110519F42E
:1014900084E090E002C081E090E0820C931C869D85
:1014A0009001879D300D969D300D1124820E931E64
:1014B0000115110519F060E170E002C064E070E010
:1014C000C5010E943D080097B9F02091D0063091E7
:1014D000D10628193909FC0140815181240F351F9B
:1014E0004091D2065091D3062417350718F480E0B6
:1014F00090E067C00E9475088091D0069091D10657
:10150000881999092091D2063091D3068217930742
:1015100074F39093D1068093D006FC01ED57FD4FF4
:10152000918280824F0123E0820E911C01151105EA
:1015300011F080E101C084E08283B501C4010E9402
:10154000FE312B803C803FEF231A330A280C391CD4
:10155000F101C192D1921F0129813A813093D306C2
:101560002093D2065F01812C912C8414950464F49D
:101570000E94ED060E94632AF501619371935F0159
:10158000FFEF8F1A9F0AF1CFD7FE02C0C12CD12CDA
:10159000C601880F991F820D931D012B19F424E0B9
:1015A00030E002C021E030E0269DA001279D500DD3
:1015B000369D500D112460E070E00E94D03181E032
:1015C00090E00F900F900F900F90DF91CF911F91AF
:1015D0000F91FF90EF90DF90CF90BF90AF909F90D2
:1015E0008F907F906F905F904F903F902F900895D5
:1015F0008F929F92AF92BF92CF92DF92EF92FF9223
:101600000F931F93CF93DF93EC014B01E881F98196
:10161000A190B190F983E8830E94ED060E94632AAD
:10162000A616B706C1F5E12CF12CCC24C394D12C1D
:1016300000E010E0EA14FB0444F50E94ED060E946D
:10164000632AE881F981A191B191F983E8831616A3
:10165000170624F5A617B7070CF1AB014150510945
:10166000C49E9001C59E300DD49E300D1124020FF2
:10167000131FC6018A9F60018B9FD00C9A9FD00CCC
:1016800011249FEFE91AF90AD5CFF40111830083E1
:1016900080E090E005C084E190E002C085E190E048
:1016A000DF91CF911F910F91FF90EF90DF90CF903E
:1016B000BF90AF909F908F900895CF92DF92EF925E
:1016C000FF920F931F93CF93DF9300D000D0CDB73D
:1016D000DEB78C016A017B0164E070E00E943D0886
:1016E000009721F1F80101900020E9F7E01BF10BD0
:1016F0003396E80FF91FFC83EB83BE016F5F7F4FCA
:10170000CE0103960E94F80A009791F489819A818C
:10171000880F991F880F991FEB81FC81E80FF91F33
:10172000C082D182E282F38280E001C08CE090E04E
:101730000F900F900F900F90DF91CF911F910F910D
:10174000FF90EF90DF90CF9008958F929F92AF928D
:10175000BF92CF92DF92EF92FF920F931F93CF939E
:10176000DF9300D000D0CDB7DEB78C01A090D206B9
:10177000B090D3060E944F076C01FC01019000203D
:10178000E9F7CF0101977C01EC18FD0860E170E0FA
:10179000C8010E943D084C01009709F461C0F8019E
:1017A00001900020E9F7E01BF10B3396E80FF91FD9
:1017B000FC83EB83BE016F5F7F4FCE0103960E94D7
:1017C000F80A009709F050C029813A8180E090E042
:1017D0000B811C81F801821793074CF44081411161
:1017E00001C001960F5F1F4F1C830B83F1CF019047
:1017F0000020E9F73197E01BF10BEE1AFF0A809108
:10180000D0069091D1068E199F098A159B0554F137
:10181000F401808191818E0D9F1D91838083809141
:10182000D0069091D106BC016D577D4FA801461B93
:10183000570B8E199F098D579D4F0E94BE31B601DF
:10184000C8018E199F090E94FE318091D0069091A7
:10185000D1068E199F099093D1068093D00602C0BD
:101860008CE001C080E090E00F900F900F900F90FF
:10187000DF91CF911F910F91FF90EF90DF90CF906C
:10188000BF90AF909F908F900895EF92FF920F932B
:101890001F93CF93DF9300D000D0CDB7DEB78C017C
:1018A0007B0164E070E00E943D08009719F48CE031
:1018B00090E014C0F80101900020E9F7E01BF10B63
:1018C0003396E80FF91FFC83EB83BE016F5F7F4FF8
:1018D000CE0103960E94F80A009739F0F701918330
:1018E000808360E070E0CB010EC089819A81880F0F
:1018F000991F880F991FEB81FC81E80FF91F608108
:101900007181828193810F900F900F900F90DF91E2
:10191000CF911F910F91FF90EF900895EF92FF925A
:101920000F931F93CF93DF9300D000D0CDB7DEB7D6
:101930008C017B0160E170E00E943D08009719F482
:101940008CE090E019C0F80101900020E9F7E01B5D
:10195000F10B3396E80FF91FFC83EB83BE016F5F39
:101960007F4FCE0103960E94F80A009729F429813F
:101970003A8180E090E00DC0F7019183808380E0A0
:1019800090E00DC04081411101C001963196FC8369
:10199000EB83EB81FC8182179307A4F3CF010F90B7
:1019A0000F900F900F90DF91CF911F910F91FF90AB
:1019B000EF900895CF93DF93EC0163E070E00E9415
:1019C0003D08009771F0FE0101900020E9F7319782
:1019D000EC1BFD0BE80FF91F6481758186819781EF
:1019E00004C06FEF7FEF8FE79FE7DF91CF910895FE
:1019F000CF93DF93EC0168E070E00E943D08009710
:101A000051F0FE0101900020E9F7EC1BFD0B33962D
:101A1000E80FF91F02C0E0E0F0E0CF01DF91CF91C5
:101A200008950F931F93CF93DF93EC018B0163E035
:101A300070E0C8010E943D08009749F44FEF5FEF46
:101A40006FE77FE7488359836A837B8336C0FC0155
:101A50002281223049F04FEF5FEF6FE77FE74C8341
:101A60005D836E837F8329C0F80101900020E9F730
:101A7000E01BF10B3396E80FF91F40815181628121
:101A80007381488359836A837B834481558166814E
:101A900077814C835D836E837F834085518562852A
:101AA0007385488759876A877B87848595859D8755
:101AB0008C87868597859F878E87CE01DF91CF9112
:101AC0001F910F910895CF92DF92EF92FF920F93A3
:101AD0001F93CF93DF936C017B014091D00650910F
:101AE000D1068A01045011098091D2069091D30643
:101AF0000817190744F1C091CE06D091CF06CA014C
:101B00008D579D4F9E01241B350BA901BC010497E5
:101B10000E94BE311093D1060093D0069E0124503E
:101B200031093093CF062093CE063093CD06209313
:101B3000CC06F901ED57FD4FD182C082F382E282DB
:101B400081E090E002C080E090E0DF91CF911F91B2
:101B50000F91FF90EF90DF90CF9008950F931F9318
:101B6000CF93DF93E091CC06F091CD062091CA0689
:101B70003091CB06E217F30781F1ED57FD4F20813D
:101B80003181DC012D933C9382819381FB01918310
:101B900080830091CE061091CF06C091D006D091DF
:101BA000D106CE018D579D4FA8014C1B5D0BBC018A
:101BB00004960E94BE312496D093D106C093D006DD
:101BC0000C5F1F4F1093CF060093CE061093CD06E7
:101BD0000093CC0681E090E002C080E090E0DF91CD
:101BE000CF911F910F9108958F929F92AF92BF92C4
:101BF000CF92DF92EF92FF920F931F93CF93DF93D9
:101C0000CDB7DEB72B970FB6F894DEBF0FBECDBFB2
:101C1000A090C806B090C9067501F50191905F01CA
:101C2000C92CD12CC6010E948E318C010097A1F7DE
:101C3000F092C906E092C806911017C0E091C6065E
:101C4000F091C706CF0101969093C7068093C60610
:101C500010828091C4069091C50601979093C506A5
:101C60008093C4060FEF1FEF34C2C601C0970A97D6
:101C700018F0FEE29F128AC0F701DE01119680E0A3
:101C800090E020E030E07D016E2F5F2F41914E32D9
:101C900059F4232B39F06093C8065093C90601E02C
:101CA00010E017C221E030E001964D936081462F8D
:101CB00050E0405351094A30510540F48A309105B3
:101CC00019F7F093C906E093C806E9CF6E32B1F375
:101CD000F093C906E093C806F701E80FF91F1082D8
:101CE0008091C4069091C506863091050CF45AC1C6
:101CF00005979093C5068093C406232BB1F44AE060
:101D000050E060E070E0C7010E946E2F4B015C0163
:101D100021E0821A9108A10820E8B20A4EEF841649
:101D20004FEF9406A406B40608F1C090C606D09002
:101D3000C706C60101969093C7068093C60683E046
:101D4000F601808360E070E0C7010E940B2EF6016F
:101D500061837283838394838091C6069091C706C2
:101D600004969093C7068093C606B3C1E091C60659
:101D7000F091C70622E0208361837283838394837A
:101D80003596F093C706E093C606A3C1C6010E942C
:101D900087318C01009709F4EAC0FFEFEF1AFF0AC0
:101DA000F092C906E092C80699828701EE24E39476
:101DB000F12CB02EC12EF801D1908F018D2D90E025
:101DC0000E947A31892B81F028E0E216F1048CF729
:101DD000E1E0F0E0EC0FFD1FEE0DFF1DD082A7014A
:101DE0004F5F5F4F7A01E5CFF4E2DF1669F3B092FF
:101DF000C806C092C906E1E0F0E0EC0FFD1FEE0D51
:101E0000FF1D10821DECC12E11E0D12E07E1A02E86
:101E1000B12CF60165917491CE0101960E94D731E3
:101E20008C01009709F051C08091C4069091C506BD
:101E3000823091050CF4B6C001979093C50680934B
:101E4000C406E091C606F091C706CF0101969093B3
:101E5000C7068093C606A0822FE1A216B10409F03E
:101E600038C101969093C7068093C60684E08183AB
:101E7000C090C806D090C90676014FEFC41AD40AA4
:101E8000F701808190E00E948E318C010097A1F7CC
:101E9000F092C906E092C806D701E091C606F0911B
:101EA000C7064A2F3B2F2D91CF010196222319F00F
:101EB0002083FC01F6CF4093C8063093C906909367
:101EC000C7068093C606108204C1FFEFAF1ABF0A8F
:101ED00023E0C20ED11C42E4A416B10409F099CF4C
:101EE00064E270E0CE0101960E94EA31009769F049
:101EF000970121503109E1E0F0E0EC0FFD1F2E0FBA
:101F00003F1F8217930709F0D4C02091C406309177
:101F1000C506C7010196821793070CF043C0C7019D
:101F200080959095820F931F9093C5068093C40669
:101F3000E091C606F091C7068F010F5F1F4F81E049
:101F40008083BE016F5F7F4FC8010E94FE31F701A1
:101F50003197E00FF11F808180688083E00EF11ED1
:101F6000F092C706E092C60600E010E0B2C0F2E2CE
:101F70009F1256C0E091C606F091C706DF01119688
:101F8000B093C706A093C60684E080838091C40600
:101F90009091C50601979093C5068093C406823040
:101FA00091051CF402E010E094C0F7013196F09323
:101FB000C906E093C8064081442319F19D012F5FB3
:101FC0003F4F0197423229F441813196423209F064
:101FD00073C0AF014F5F5F4F60816C93823091059A
:101FE0006CF45093C9064093C8063093C7062093FB
:101FF000C6069093C5068093C406D4CFFA01D901D2
:10200000DACFF093C906E093C806B093C706A09351
:10201000C6069093C5068093C40604E010E059C03C
:10202000AAECCA2EA1E0DA2EB6E18B2E912CF60195
:10203000A591B491FD0101900020E9F7AF01415055
:1020400051095A01AA1ABB0AF60185919491A5017A
:10205000B7010E9405328C01009701F58091C406FA
:102060009091C506823091050CF49CCFE091C60694
:10207000F091C7069F012F5F3F4F3093C706209313
:10208000C606808201979093C5068093C406EA0C29
:10209000FB1CF092C906E092C8061BC051E0851AED
:1020A000910883E0C81AD10897E08916910409F0D5
:1020B000BECF03E010E00DC0F093C906E093C80660
:1020C0003093C7062093C6061C929093C506809352
:1020D000C406C8012B960FB6F894DEBF0FBECDBF65
:1020E000DF91CF911F910F91FF90EF90DF90CF90F4
:1020F000BF90AF909F908F9008959093C906809362
:10210000C8067093C7066093C6065093C5064093F1
:10211000C4060E94F40D0097E1F397FF02C080E02F
:1021200090E008950F931F93CF93DF93C091B4066F
:10213000D091B506D093B306C093B206FE01319696
:10214000F093B506E093B406088110E01093B10651
:102150000093B00601301105D9F4A7EAB6E0CD012D
:10216000875A9640419147FD02C04D93F8CFF093B6
:10217000B506E093B4064058FC01E955F94F408399
:1021800081E0443209F080E08093A606118235C0D8
:102190000330110569F449815A816B817C81409338
:1021A000A2065093A3066093A4067093A50611C0DF
:1021B00002301105A1F469817A818B819C810E9492
:1021C000962A6093A2067093A3068093A406909328
:1021D000A5062596D093B506C093B4060EC004306C
:1021E000110559F4F093A106E093A0060190002098
:1021F000E9F7F093B506E093B406C801DF91CF91FB
:102200001F910F9108958091C306882379F0609102
:10221000A2067091A3068091A4069091A5060E9443
:10222000CE06892B19F48AE090E008950E9492105E
:1022300080E090E008958091C306882359F0809152
:10224000A0069091A1060E94FE06892B19F48AE04F
:1022500090E008950E94921080E090E108950E941D
:1022600092108091C3068823B1F00E94FB2DBC011F
:10227000882777FD8095982F0E94962A20E03EEFD0
:102280004FEF56E40E94FB290E94CE06892B19F4D9
:102290008AE090E0089580E090E00895CF93DF9386
:1022A00000D0CDB7DEB70E9492108091C30688237C
:1022B00069F00E94FA2089831A82CE0101960E9459
:1022C000FE06892B19F48AE090E002C080E090E1DC
:1022D0000F900F90DF91CF9108958091B00690916B
:1022E000B1069C01275131092230310510F18E30A1
:1022F000910511F181319105F9F0285F3F4F2230AE
:102300003105E8F02350310922303105C0F0285F53
:102310003F4F22303105B0F02250310922303105D3
:1023200018F488E290E008958E97D9F38FEF9FEF2D
:10233000089585E090E008958AE090E0089584E1B2
:1023400090E008958EE190E008950E94BE149C01F3
:102350003F702115310539F48827907F892B21F0B2
:1023600027E030E001C09C01C9010895CF93DF93BD
:102370008091B0069091B106089741F50E949210A5
:10238000C0E0D0E021960E94A511009719F5809138
:10239000B0069091B1068930910529F04697B1F4C5
:1023A0000E949210EFCF0E9492108091C306882362
:1023B00079F0BE01882777FD8095982F0E94962A94
:1023C0000E94CE06892B21F48AE003C085E001C07B
:1023D00080E090E0DF91CF910895CF92DF92EF926D
:1023E000FF92CF93DF93CDB7DEB72B970FB6F8945C
:1023F000DEBF0FBECDBFD090C306DD2031F067EA4F
:1024000076E0CE0101960E94FE31E090A606FF2400
:10241000E7FCF0940E9492108091B0069091B10672
:10242000089719F50E94B611009709F04AC08091EB
:10243000C3068823E9F11B861A86BE01665F7F4FBB
:10244000CE010196EF2841F00E948E0C2A853B8533
:102450002115310541F413C00E94450C2A853B85A6
:102460002115310501F1C9012CC0DD2009F1CE0192
:102470000196EF2851F00E94F80C0097E9F00E94B5
:10248000FE06892BE1F48AE018C00E94DA0C6B0189
:102490007C012FEF3FEF4FE75FE70E94F72988238A
:1024A00059F0C701B6010E94CE06892B61F302C024
:1024B000EF2829F480E001C08CE090E002C080E0C9
:1024C00090E12B960FB6F894DEBF0FBECDBFDF9123
:1024D000CF91FF90EF90DF90CF9008958091B0065C
:1024E0009091B10687329105BCF48532910594F53F
:1024F0008430910539F134F48130910509F164F1AA
:102500000C9403118B30910519F18931910501F17A
:10251000089711F50C942516863391054CF48333F6
:102520009105C4F48732910579F08A97ACF412C012
:102530008B33910559F084F0CE97029758F00CC078
:102540000C94ED110C941B110C942F110C944E1142
:102550000C94AF120C94CA1486E090E008950F9387
:102560001F93CF93DF930091B0061091B1060E94A4
:1025700092100E946E12EC01DF70209759F58827A7
:10258000907F892B49F50B30110521F00931110598
:1025900049F025C08091C306882319F10E94ED06F9
:1025A000905815C08091C3068823D9F00E94ED068B
:1025B00020E030E0A9010E94F729882321F060E0A3
:1025C00070E0CB0104C060E070E080E89FE30E940F
:1025D000CE0607C0EC0105C0C7E0D0E002C0C6E0EF
:1025E000D0E0CE01DF91CF911F910F9108952F92EE
:1025F0003F924F925F926F927F928F929F92AF9293
:10260000BF92CF92DF92EF92FF920F931F93CF93DF
:10261000DF931C018B010E946D114C018215930503
:102620000CF4A6C0C091B006D091B1060E949210E1
:102630000E946E125C019F70892B09F09BC00E9462
:102640006D118816990654F4B501C40101960E94D3
:10265000F7125C019F70892B09F08CC0C801882794
:10266000907F009769F5AA2420EFB222AB2811F0E1
:1026700086E083C0B090C306BB2009F480C00E94EE
:10268000ED066B017C010E94ED06762E672E582E1A
:10269000492ECA30D10529F4A70196010E94932939
:1026A0000CC0CB30D10509F072C0A7019601672D8F
:1026B000762D852D942D0E9492290E94CE06ABCFB7
:1026C00081159041A9F6AA2480EFB822A11420E137
:1026D000B20671F6CA30D10541F48091C306882351
:1026E00009F499CF0E94620796CFCE010E97069704
:1026F00008F0BECF8091C306811103C000E010E056
:102700008ACF0E944F078C010E944F07B8010E9498
:10271000F531CE30D10519F40097D1F41EC0C13186
:10272000D10519F40097A1F018C0CF30D10521F4DC
:102730001816190694F016C0C031D10519F497FF88
:1027400011C00BC0C231D10519F497FD0BC005C0F3
:10275000639741F4181619062CF060E070E080E8E9
:102760009FE303C060E070E0CB010E94CE06C6CFBD
:10277000C801F1C0C501EFC08BE090E0ECC0CA30E9
:10278000D10509F448CFCB30D10509F444CFCC3082
:10279000D10561F4BB2009F43ECFA7019601672D56
:1027A000762D852D942D0E94E82B87CFCD30D10535
:1027B000A9F4BB2009F42FCF20E030E0A901C70124
:1027C000B6010E94F7298823B9F2A7019601672D67
:1027D000762D852D942D0E94FB296FCFCE32D10509
:1027E000E1F4BB2009F417CFC701B6010E94632AA8
:1027F000EB01209709F2672D762D852D942D0E94EF
:10280000632ACB01BE010E94702CBC01882777FD92
:102810008095982F0E94962A50CFC031D10571F42F
:10282000BB2009F4F8CEA7019601672D762D852DE2
:10283000942D0E94F72987FF5BC055C0CF30D1058A
:1028400079F4BB2009F4E7CEA7019601672D762D18
:10285000852D942D0E94992B18160CF049C043C069
:10286000CE30D10571F4BB2009F4D5CEA701960175
:10287000672D762D852D942D0E94F729811138C062
:1028800032C0C131D10571F4BB2009F4C4CEA70117
:102890009601672D762D852D942D0E94F72988238A
:1028A00039F121C0C331D10571F4BB2009F4B3CE95
:1028B000A7019601672D762D852D942D0E94F7296D
:1028C0001816B4F010C0C231D105B1F4BB2009F420
:1028D000A2CEA7019601672D762D852D942D0E94FD
:1028E000992B87FD05C060E070E080E89FE3E5CEAE
:1028F00060E070E0CB01E1CEC731D10589F4BB20A7
:1029000009F489CE20E030E0A901C701B6010E9498
:10291000F729811119C050E040E030E020E016C0F6
:10292000689709F0A5CEBB2009F475CE20E030E011
:10293000A901C701B6010E94F729882329F050E0B8
:1029400040E030E82FE302C0A3019201652F742F0D
:10295000832F922FB2CEDF91CF911F910F91FF90D5
:10296000EF90DF90CF90BF90AF909F908F907F902F
:102970006F905F904F903F902F9008950E946E123D
:102980009C013F70232B29F4BC0180E090E00C9463
:10299000F71208958F929F92AF92BF92CF92DF92DB
:1029A000EF92FF920F931F93CF93DF93CDB7DEB7D4
:1029B00060970FB6F894DEBF0FBECDBFA090B006F3
:1029C000B090B106F501EE0FFF1FEA0DFB1DE657B3
:1029D000FE4F14910E9492108091B0069091B10622
:1029E000089709F01DC10E949210812F8370882ED4
:1029F000912C812F8873E82EF12C23E0F594E79435
:102A00002A95E1F700E012FF02C010E101C010E0DA
:102A1000C12CD12CC814D9042CF50E94BE149C01E1
:102A20003F70232B09F0FEC08827907FE0FC04C094
:102A3000892B31F087E0F5C08115904109F0ECC099
:102A4000F594E7948FEFC81AD80AC814D90414F77C
:102A50008091B0069091B106469709F0DFC00E94C0
:102A60009210D8CF8091C306882309F4CBC0F5011A
:102A7000B597EB31F10508F0D1C0EC5CFF4F0C9439
:102A8000C52C0E94ED060E94D12A0E94CE06BAC033
:102A90000E94ED06AE014F5F5F4F0E94851F0E94AE
:102AA000FE0612C00E944F07FC0101900020E9F7CA
:102AB0003197E81BF90BBF01882777FD8095982F88
:102AC0000E94962A0E94CE06892B09F09BC08AE0BC
:102AD000A8C0E090D206F090D306C090B206D09085
:102AE000B306A090D006B090D106AE18BF080E94E1
:102AF0004107B7016D577D4FA5010E947D100097DA
:102B000021F0029721F387E18CC08091D206909149
:102B1000D3068D579D4F9093B5068093B406809150
:102B2000C6069091C706835892409093D30680932F
:102B3000D2060E9492100E94BE149C013F70232B6B
:102B400019F00A9701F7C3CF8827907F892B09F0E6
:102B500071CF0E94ED064B015C01F092D306E0922A
:102B6000D2060E944F07C501B4010E94CE06D09242
:102B7000B506C092B4060E94921044C00E94ED06B1
:102B80000E94632ADC01CB0197FF02C086E149C0A5
:102B900060E070E00AC00E94ED060E94632ADC013A
:102BA000CB0197FDF3CF61E070E00E94AA072AC035
:102BB0000E94ED060E94632A6B017C010E94ED06D3
:102BC000D7FCE4CF0E94632ADC01CB01181619065A
:102BD000ECF6B6010E94F40715C00E94ED060E94B3
:102BE000632ACB010E94611D07C00E94ED060E946E
:102BF000632ACB010E94631DBC01882777FD809565
:102C0000982F5ECF8091B0069091B106099741F45C
:102C10000E949210C80106C088E003C086E001C08F
:102C200085E090E060960FB6F894DEBF0FBECDBF92
:102C3000DF91CF911F910F91FF90EF90DF90CF9098
:102C4000BF90AF909F908F900895CF93DF930E9495
:102C500092100E94BE14EC019F70892B41F4809168
:102C6000B0069091B106099721F40E949210CE010E
:102C700002C085E090E0DF91CF9108950E9492100C
:102C80008091B0069091B106892B19F461E070E053
:102C90000FC00E94A511009791F58091C30688236B
:102CA000A9F30E94ED060E94682A6115710519F1C9
:102CB0008091C306882309F180E094E09093CB06CD
:102CC0008093CA069093CD068093CC069093CF064E
:102CD0008093CE069093D1068093D0067093BE0663
:102CE0006093BD061092B8061092B7061092BA060D
:102CF0001092B90602C08EE001C080E090E0089515
:102D00000E9492100E94A511009799F48091C30629
:102D1000882359F00E94ED060E94682A611571050A
:102D200031F07093BE066093BD0680E001C08EE076
:102D300090E008950E9492100E94A511009781F4DE
:102D40008091C306882341F00E94ED060E94632A09
:102D500097FD04C00E94581D80E001C088E190E00A
:102D60000895CF93DF930E9492108091B0069091C6
:102D7000B106009719F4C0E0D0E00FC04497D9F332
:102D80000E94A511009759F58091C306882399F3F5
:102D90000E94ED060E94682AEB018091B006909196
:102DA000B106469719F060E070E00EC00E949210E4
:102DB0000E94A511009799F48091C306882399F386
:102DC0000E94ED060E94682A8091C306882329F09C
:102DD000CE010E94FB050E94F41D80E090E0DF918F
:102DE000CF910895CF93DF930E949210C1E0D0E07D
:102DF0008091B0069091B106009729F48091C306A6
:102E0000811127C02DC04497C9F30E94BE149C01B4
:102E10003F70232B31F52091C306222379F08827B8
:102E2000907F892B29F40E94ED060E94FA1F04C0AE
:102E30000E944F070E947C1EC1E0D0E08091B00646
:102E40009091B1064597A1F60E949210C0E0D0E0A3
:102E5000CFCFCD2B11F00E9414200E94F41D80E0F2
:102E600090E0DF91CF910895CF92DF92EF92FF92A1
:102E7000CF93DF93C091B006D091B1060E9492101B
:102E80000E94A5110097A1F58091B0069091B1061E
:102E9000469751F50E9492100E94A511009741F5A6
:102EA0008091C306882311F10E94ED060E94632AD7
:102EB0006B017C010E94ED060E94632ADC01CB01BC
:102EC000C933D10549F0CA33D10551F0E89771F4FF
:102ED000B6010E94D71D0AC0B6010E945A1D06C045
:102EE000B6010E94651D02C086E001C080E090E04E
:102EF000DF91CF91FF90EF90DF90CF900895DF9218
:102F0000EF92FF920F931F93CF93DF93CDB7DEB76E
:102F100029970FB6F894DEBF0FBECDBFD82E2091F3
:102F2000B0063091B1062130310509F09AC0809188
:102F3000C306882331F067EA76E0CE0101960E944D
:102F4000FE31E090A606FF24E7FCF0940E94921068
:102F50002091B0063091B1062830310549F40E9425
:102F6000B6119C01009709F076C001E010E002C0A4
:102F700000E010E0DD2059F18091C306882311F1B3
:102F80000E944020E114F104B1F00E94FE06892B5A
:102F900081F00E9414200E94F41D14C00E94ED06CE
:102FA000AB01BC01CE0101960E949608892B09F065
:102FB00050C08AE057C060E070E00E940B2E0E9473
:102FC000CE06E5CFEF2839F520E030E011C0809142
:102FD000B0069091B1060E9709F043C00E9492107E
:102FE0000E94BE149C019F70892BA9F5EF28A9F4BB
:102FF0002227307F232B89F58091C306882349F14E
:10300000012B61F20E94ED06AB01BC01CE010196DD
:103010000E945D0B28C020E030E12227307F21157F
:103020003041E9F48091C306882399F0012B29F0FF
:10303000CE0101960E94A50B16C00E944107BC015B
:10304000CE0101960E948E09892B09F4B2CF0E940D
:103050004F0780E007C0C90106C087E003C088E0D1
:1030600001C086E090E029960FB6F894DEBF0FBE4F
:10307000CDBFDF91CF911F910F91FF90EF90DF9027
:1030800008950E9492100E94A5110097E9F4809182
:10309000B0069091B106849799F40E9492108091A5
:1030A000C306882379F00E94ED0620E030E0A901F4
:1030B0000E94F729811106C081E08093B60602C004
:1030C00082E101C080E090E008954F925F926F929C
:1030D0007F928F929F92AF92BF92CF92DF92EF92A8
:1030E000FF920F931F93CF93DF93CDB7DEB729974E
:1030F0000FB6F894DEBF0FBECDBF0E949210809134
:10310000B0069091B106019711F086E069C08091F8
:10311000A6068111FACF8091C306882331F067EAB1
:1031200076E0CE0101960E94FE310E9492108091BD
:10313000B0069091B1060E9741F70E9492100E943E
:10314000A511009709F04DC08091C306882321F096
:103150000E94ED062B013C018091B0069091B106D2
:103160008B9799F60E9492100E94A5110097C9F5BD
:103170008091C306882321F00E94ED066B017C013B
:103180008091B0069091B1068C9729F000E010E094
:1031900020E83FE30EC00E9492100E94A511009704
:1031A00001F58091C306882389F30E94ED068B0107
:1031B0009C018091C306882391F08090BF06909077
:1031C000C006A090C106B090C206B301A201CE0114
:1031D00001960E94EF08892B11F48AE001C080E07B
:1031E00090E029960FB6F894DEBF0FBECDBFDF91F9
:1031F000CF911F910F91FF90EF90DF90CF90BF90F4
:10320000AF909F908F907F906F905F904F900895B8
:103210004F925F926F927F928F929F92AF92BF92E6
:10322000CF92DF92EF92FF92CF93DF93CDB7DEB7CD
:1032300060970FB6F894DEBF0FBECDBF0E9492100C
:103240008091B0069091B106019709F07AC0809103
:10325000A606811176C08091C306882309F46CC04C
:1032600067EA76E0CE0101960E94110D89809A806E
:10327000AB80BC80CD80DE80EF80F88449845A84A6
:103280006B847C842FEF3FEF4FE75FE7C501B4010C
:103290000E94F729882309F449C02FEF3FEF4FE739
:1032A0005FE7C701B6010E94F729882309F441C0EE
:1032B000A7019601C501B4010E9493294B015C014D
:1032C000AB01BC0187EA96E00E94960820E030E05E
:1032D000A901C701B6010E94992B87FD08C0A3016F
:1032E0009201C501B4010E94F72918168CF420E060
:1032F00030E0A901C701B6010E94F72987FF1CC071
:10330000A3019201C501B4010E94992B87FD14C04D
:103310008D859E859093BE068093BD068F85988986
:1033200001969093BC068093BB0606C08CE090E0AB
:103330000AC080E190E007C00E94921080E090E017
:1033400002C086E090E060960FB6F894DEBF0FBE34
:10335000CDBFDF91CF91FF90EF90DF90CF90BF90E6
:10336000AF909F908F907F906F905F904F90089557
:103370000E9492100E94A511009709F58091C30642
:103380008823D9F00E94ED060E94682A6115710514
:1033900091F07093BE066093BD066091BF06709178
:1033A000C0068091C1069091C2060E94630D892BD0
:1033B00021F48AE003C08EE001C080E090E008952F
:1033C0001F93CF93DF93CDB7DEB729970FB6F8944D
:1033D000DEBF0FBECDBF0E9492108091B0069091CB
:1033E000B106019721F58091C306882331F067EA81
:1033F00076E0CE0101960E94FE311091A6060E9451
:1034000092100E94B6110097B1F48091C3068823F0
:1034100081F061E070E0111102C060E070E0CE0167
:1034200001960E94F809892B21F48AE003C086E006
:1034300001C080E090E029960FB6F894DEBF0FBE81
:10344000CDBFDF91CF911F9108951092D7061092B2
:10345000D6061092D3061092D2061092D50610927C
:10346000D40680E094E09093CB068093CA069093B4
:10347000CD068093CC069093CF068093CE06909392
:10348000D1068093D006E3E8F2E0DF019C011D92B3
:1034900021503040E1F71092BA061092B90610920E
:1034A000B8061092B7061092C2061092C10608958F
:1034B0000F931F93CF93DF93CDB7DEB729970FB646
:1034C000F894DEBF0FBECDBF0091B0061091B106DB
:1034D0000E9492108091B0069091B1060C331105B4
:1034E00041F48A30910529F40E94921090E081E025
:1034F00015C0009789F0449779F00E94BE149C0192
:103500003F70232B09F057C08827907F8115904189
:1035100009F04BC091E001C090E080E02091C3062B
:10352000222309F444C0992391F10E944107FC0130
:1035300001900020E9F73197E81BF90B399728F53E
:103540000E944F07BC01CE0101960E94FE310C3350
:10355000110541F4CE0101960E94A222811127C0DB
:103560008AE028C00D33110539F40E94251ACE01D6
:1035700001960E943C2307C001341105C1F4CE011D
:1035800001960E946B22811112C088E113C00C3396
:10359000110519F40E9424210AC00D33110549F4C4
:1035A0000E94251A0E94562102C088E003C080E0D4
:1035B00001C08DE090E029960FB6F894DEBF0FBEF3
:1035C000CDBFDF91CF911F910F9108950F931F935E
:1035D000CF93DF9300D000D0CDB7DEB70091B00617
:1035E0001091B1060E9492108091C306882309F4BD
:1035F00061C00F321105A9F03CF400321105B9F099
:103600000232110539F156C00633110509F44BC0D9
:103610000034110509F44CC00133110509F04AC00A
:1036200028C00E94251A81E08093B60643C080918D
:10363000C1069091C2069093BA068093B906809114
:10364000BF069091C0069093B8068093B70681E1BB
:1036500090E032C08091B9069091BA06009751F17E
:103660009093BE068093BD068091B7069091B806F0
:1036700014C0BE016F5F7F4FCE0103960E94AE0D56
:10368000892B19F483E190E017C08B819C81909382
:10369000BE068093BD0689819A8101969093BC06EF
:1036A0008093BB0607C00E94BE1D0E94F41D02C08D
:1036B0000E942C2280E090E00F900F900F900F90CE
:1036C000DF91CF911F910F9108951092B60610923D
:1036D000BE061092BD061092BC061092BB06E09189
:1036E000B006F091B106309719F480E090E00895AB
:1036F0008091C306882361F08091D6069091D70609
:103700009093D5068093D4069093D3068093D206E7
:103710003197E134F10508F080C0E15BFF4F0C9474
:10372000C52C0E94F21636C00E94921080E003C0A1
:103730000E94921081E00E947F172CC00E94B11657
:1037400029C00E943E1626C00E94801623C00E94F7
:1037500092100E94921021E030E021C00E94411896
:1037600020E030E019C00E94651814C00E940819BA
:1037700011C00E94B8190EC00E94E0190BC00E942F
:103780009A1608C00E94581A05C00E94341702C039
:103790000E94E61A21E030E0009709F040C08091D5
:1037A000B6068111A2CF8091BD069091BE06892BED
:1037B00009F09BCF8091BB069091BC06892B09F044
:1037C00094CF8091B0069091B106009719F480E0F3
:1037D00090E00EC0232BD9F3449741F40E9492103D
:1037E0008091B0069091B106892B89F78DE090E029
:1037F0002091BF063091C0062F5F3F4F3093C00627
:103800002093BF0640919E0650919F0624173507CE
:1038100031F0009709F463CF08958DE090E00895AA
:10382000CF92DF92EF92FF920F931F93CF93DF938C
:103830007C019093B5068093B4060E94921080910B
:10384000B0069091B1060297C9F46091A2067091FA
:10385000A3068091A4069091A5060E94632A611593
:10386000710521E0820791050CF0CCC0EB01C090FE
:10387000B406D090B5060E94921004C0C12CD12C81
:10388000C0E0D0E01092C30610929F0610929E06F0
:103890000E94651B009709F0B9C0209779F040910C
:1038A000B4065091B5064C195D09B601CE010E94CF
:1038B0006106892B09F4A8C080E0A7C0F092B50684
:1038C000E092B40681E08093C3061092C206109283
:1038D000C106DD24D3940E9492101092C00610926B
:1038E000BF0680919E0690919F06892B51F0109201
:1038F000C3060E94651BD092C30610929F061092C9
:103900009E060E94651B009709F080C08091C10649
:103910009091C206C091BD06D091BE06892B49F494
:10392000209799F48091BB069091BC06892B69F48D
:10393000C3CF209751F48091BB069091BC06892B90
:1039400021F01092C2061092C1068091C10690919A
:10395000C206892B69F4209759F48091BB06909197
:10396000BC06892B29F0F092B506E092B40639C066
:10397000209731F48091BB069091BC06892B29F0E9
:10398000CE010E9435068C0105C0F801808191812D
:10399000080F191F8091D6069091D7068D579D4F1D
:1039A0000817190709F488CFF80182819381909351
:1039B000C2068093C10698012C5F3F4F3093B50635
:1039C0002093B406209769F02091BB063091BC0685
:1039D000232B39F0C817D90720F41092BC06109297
:1039E000BB068091BB069091BC06009721F0909396
:1039F0009F0680939E060E940421882309F46BCFC2
:103A00008FE003C089E001C08AE090E0DF91CF91B0
:103A10001F910F91FF90EF90DF90CF900895F89451
:103A200010928000E1E8F0E010828EEE95E890932D
:103A30009207809391079093850080938400808102
:103A400084608083EFE6F0E08081816080837894F9
:103A500008951F920F920FB60F9211248F939F9388
:103A600080919107909192079093850080938400B4
:103A70009091DC0681E0911180E08093DC0681E08A
:103A80008093DB069F918F910F900FBE0F901F9038
:103A900018958093D80683E896E00E9414258091BB
:103AA000D806882319F061E00E94BA280C940F1DF3
:103AB0000C94FF279B0161E0232B09F460E00C9438
:103AC000F3280C9429290C9474280C94BA2880911A
:103AD000D806882371F061E00E94F32861E070E06D
:103AE00080E090E00E94FF2760E08091D8060C946F
:103AF000F3280895CF92DF92EF92FF920F931F93D6
:103B0000CF93DF938091D806882379F182E0C82E85
:103B1000D12CE12CF12CC2E3D0E000E010E061E018
:103B20008091D8060E94F328C701B6010E94FF27A2
:103B300060E08091D8060E94F328C701B6010E9478
:103B4000FF270F5F1F4F0C171D074CF364E670E053
:103B500080E090E00E94FF27E29681E0C81AD10839
:103B6000E108F108C639D105C1F6DF91CF911F9167
:103B70000F91FF90EF90DF90CF90089548EA50E0CA
:103B800060E270E089EE96E00E94D03148E050E0BB
:103B900061E070E081EE96E00E94D0311092E00684
:103BA0001092DF061092DE061092DD06089597FD52
:103BB00006C0853191052CF084E190E002C080E0E0
:103BC00090E077FD06C0683071052CF067E070E08A
:103BD00002C060E070E09093E0068093DF0670938F
:103BE000DE066093DD060895CF92DF92EF92FF929A
:103BF0000F931F93CF93DF9391EEE92E96E0F92E6A
:103C000029EEC22E26E0D22EC0E0D0E0F70180815E
:103C100081110BC08091DA068823B9F18091DD060D
:103C20009091DE06C817D90781F54C2F60E083E834
:103C300096E00E94C22400E010E0F601E00FF11FC0
:103C4000608160320CF460E28091DF069091E006C2
:103C50000817190779F48091DD069091DE06C817E0
:103C6000D90741F48091DA06882321F08091DC069F
:103C700081116FE783E896E00E947A290F5F1F4F5A
:103C800005311105D1F6F70110822196FFEFEF1AE9
:103C9000FF0A85E1C80ED11CC830D10509F0B6CFA6
:103CA000DF91CF911F910F91FF90EF90DF90CF9018
:103CB000089583E9EEEFF6E0A9EEB6E001900D92EB
:103CC0008A95E1F745E150E060E270E08CE797E02B
:103CD0000E94D03148E050E061E070E081EE96E073
:103CE0000E94D0318091DD069091DE06019790937D
:103CF000DE068093DD060895DF92EF92FF920F9328
:103D00001F93CF93DF932091DD063091DE0645E1CE
:103D1000429FE001439FD00D11242091DF06309196
:103D2000E006C20FD31F8C0135E1E32EF12CDD2418
:103D3000D394F80180818823D1F0CE01B7010E948D
:103D4000702C6F51794FFB01D082CE010196F801A2
:103D500021918F01FE01E751F94F2083883A9105A7
:103D600024F00E94591ECE014497EC01E2CFCE010F
:103D700065E170E00E94702C9093E0068093DF066E
:103D80007093DE066093DD06DF91CF911F910F9156
:103D9000FF90EF90DF900895CF93DF93482F20910D
:103DA000DD063091DE0685E1829FE001839FD00D24
:103DB00011242091DF063091E006C20FD31FCE01FF
:103DC00065E170E00E94702C6F51794F81E0FB013A
:103DD0008083CE010196FE01E751F94F4083883A76
:103DE000910524F00E94591ECE01449765E170E0D0
:103DF0000E94702C9093E0068093DF067093DE069D
:103E00006093DD06DF91CF910895CF93DF93FC019E
:103E10008491EF012196882321F00E94CC1EFE019F
:103E2000F7CFDF91CF9108952F923F924F925F92FB
:103E30006F927F928F929F92AF92BF92CF92DF92BA
:103E4000EF92FF920F931F93CF93DF938B01382E46
:103E5000292E6B01E82EF92EC0E0D0E0812C912CA8
:103E6000540183946AE0462E512C612C712C2196CA
:103E7000AAE0B0E0A50194010E94CB2C4B015C01AB
:103E8000C701B601A30192010E94A62C69017A0123
:103E9000211531054105510551F7E12CF12C4AE07E
:103EA000442E512C612C712CC501B401A301920147
:103EB0000E94A62C49015A01B801832D922D0E941F
:103EC000A62CCA01B901A30192010E94A62C80E38D
:103ED000860F0E94CC1E8FEFE81AF80AEC16FD063A
:103EE0001CF3CE01DF91CF911F910F91FF90EF90C6
:103EF000DF90CF90BF90AF909F908F907F906F900A
:103F00005F904F903F902F9008958F929F92AF9225
:103F1000BF92CF92DF92EF92FF920F931F93CF93B6
:103F2000DF936B017C01EA0120E030E0A9010E94EF
:103F3000F729811104C080E3888319824DC04601AE
:103F40005701E894B7F827E137EB41ED58E3C50195
:103F5000B4010E94F72987FD0AC020E034E244E75B
:103F600059E4C501B4010E94992B181644F400E0ED
:103F700026E0AE01C701B6010E94F92C2DC0C50193
:103F8000B4010E949D2B0E94D12A20E030E040E83D
:103F90005FE30E9493290E94632AE7E0AE2EB12CD2
:103FA000A61AB70A8E012A2D41E0C701B6010E9468
:103FB0008C2DAB2889F0CE01FC01019620812111C6
:103FC000FBCFDF011197FD018C91803311F41C921E
:103FD000F8CF8E3209F41082CE01DF91CF911F917C
:103FE0000F91FF90EF90DF90CF90BF90AF909F9098
:103FF0008F900895CF93DF93CDB7DEB760970FB65C
:10400000F894DEBF0FBECDBFAE014F5F5F4F0E9481
:10401000851F0E947C1E60960FB6F894DEBF0FBE0F
:10402000CDBFDF91CF910895CF93DF931092E0063B
:104030001092DF068091DD069091DE060196909346
:10404000DE068093DD06089711F40E94591EC09188
:10405000DD06D091DE0625E12C9FC0012D9F900D3D
:10406000112445E150E060E270E08751994F0E94D1
:10407000D031CF51D94F81E08883DF91CF9108951E
:10408000BF92CF92DF92EF92FF920F931F93CF9345
:10409000DF9381E08093DA068091DF069091E0065D
:1040A000892B99F42091DD063091DE0645E1429F8F
:1040B000C001439F900D112445E150E060E270E0A3
:1040C0008751994F0E94D03102C00E9414208091E4
:1040D000DD069091DE0625E1289F8001299F100DC5
:1040E00011248091DF069091E006080F191FE80166
:1040F000F5E1EF2EF12CCC24C394BB24B394D12C46
:104100000E944626882309F451C00E94671DCE01F3
:10411000B7010E94702C6F51794FFB01C0820E9441
:104120005A2690EE980F9F3530F4FE01E751F94F73
:10413000808321960FC08F3749F40C171D0754F464
:104140002197FE01E751F94F108204C08D3011F420
:10415000DD24D394CE01B7010E94702C9093E00629
:104160008093DF067093DE066093DD06683071058C
:10417000D1F40531110534F00551110965970E94FC
:10418000591E11C02197FE01E751F94F1082CE014F
:10419000B7010E94702C9093E0068093DF06709325
:1041A000DE066093DD06B092DB06AACF8091DB06C7
:1041B00081110E94F41DDD2009F4A1CFC751D94F10
:1041C00018821092DA06E091DD06F091DE06EF51DA
:1041D000F94F81E080830E94F41DC8018751994FF7
:1041E000DF91CF911F910F91FF90EF90DF90CF90D3
:1041F000BF9008958091D9061092D90690EE980F3D
:104200009F3508F080E008950E944626882341F0FB
:104210000E945A268093D9068B31B1F781E0089528
:104220000895CF93DF93EC010E941420BE0180E03B
:1042300090E00E94141F80E20E94CC1E80E194E076
:10424000DF91CF910C94051F0F931F93CF93DF93B2
:10425000882311F06CEF01C060E080E090E00E94E4
:104260001B326091D60681E090E00E941B32609183
:10427000D70682E090E00E941B3203E812E0C0E023
:10428000D0E08091D6069091D706C817D9074CF494
:10429000F80161918F01CE0103960E941B32219695
:1042A000F0CFDF91CF911F910F910895EF92FF9280
:1042B0000F931F93CF93DF9381E090E00E9413321E
:1042C000C82F82E090E00E941332D0E0D82BD09328
:1042D000D706C093D606A3E8EA2EA2E0FA2E00E0A5
:1042E00010E00C171D0754F4C80103960E94133206
:1042F000F70181937F010F5F1F4FF3CFDF91CF91C4
:104300001F910F91FF90EF9008951F93CF93DF932C
:10431000EC01162F8F719927892B11F40E94671DCC
:1043200060EA8BE996E00E94D0266D2F8BE996E03B
:104330000E94F2266C2F8BE996E00E94F226612FF4
:104340008BE996E00E94F2268BE996E00E94B22665
:1043500065E070E080E090E0DF91CF911F910C94D8
:10436000FF27CF93DF93EC0160EA8BE996E00E9490
:10437000D0266D2F8BE996E00E94F2266C2F8BE9F8
:1043800096E00E94F22661EA8BE996E00E94AB2655
:1043900061E08BE996E00E94C626C82F8BE996E083
:1043A0000E94B2268C2FDF91CF9108959F92AF92F9
:1043B000BF92CF92DF92EF92FF920F931F93CF9312
:1043C000DF938C01C0E0D0E0CE010E94B121E82E45
:1043D000CE0101960E94B121F12CF82AE114F104DA
:1043E00049F10115110519F15E0182E0A80EB11C19
:1043F0006801F80101900020E9F73197E01BF10B0B
:10440000C601801B910BE817F907C8F0F6019190DF
:104410006F01C5010E94B121FFEFAF1ABF0A292D1C
:10442000332727FD309590E02817390711F3CE0D7B
:10443000DF1DCACF012B19F080E090E801C0CE014A
:10444000DF91CF911F910F91FF90EF90DF90CF9070
:10445000BF90AF909F900895CF92DF92EF92FF921E
:104460000F931F93CF93DF93C0E0D0E0CE010E9463
:10447000B121082FCE0101960E94B12110E0182B26
:1044800001151105D1F07E0182E0E80EF11CC70193
:104490000E94B12167019FEFC91AD90A882339F018
:1044A000C7010E94B1210E94CC1E7601F0CFC00F3F
:1044B000D11F80E20E94CC1ED9CF8EEF9FE78C1BCC
:1044C0009D0BDF91CF911F910F91FF90EF90DF90A7
:1044D000CF900C941121EF92FF920F931F93CF93E3
:1044E000DF930E94D621EC01C11580E8D80711F1B5
:1044F000CE010E94B121082FCE0101960E94B12168
:1045000010E0182B80E090E00E94D62102967C01FA
:10451000E01AF10ACE15DF0559F0CE01800F911F88
:104520000E94B121682FCE010E9485212196F2CFF1
:1045300081E001C080E0DF91CF911F910F91FF904A
:10454000EF900895CF92DF92EF92FF920F931F9317
:10455000CF93DF93EC010E94D6218115904819F08A
:10456000CE010E946B2280E090E00E94D6216C0177
:10457000FE0101900020E9F73197EC1BFD0B009143
:10458000D6061091D7060B5F1F4F0E0F1F1F40E07E
:1045900050E860E070E0481B590B61097109401B4D
:1045A000510B6109710942305105610571050CF427
:1045B00059C0602F0E948521760132E0E30EF11C84
:1045C000612FC60101960E9485218E01FE01019096
:1045D0000020E9F73197EC1BFD0B97012F5F3F4F50
:1045E0006901C8018C1B9D0B8E179F0740F4F801D1
:1045F00061918F01C7010E9485217601E7CF60E0BC
:10460000C7010E9485216091D606C6010E948521BE
:10461000E70123966091D706C70102960E94852183
:1046200003E812E08091D6069091D7069E012F5F95
:104630003F4F79019801235832402817390744F435
:10464000F80161918F01CE010E948521E701EACF37
:1046500060E0CE010E94852160E0C7010E948521B3
:1046600081E001C080E0DF91CF911F910F91FF9019
:10467000EF90DF90CF9008950F931F93CF93DF9328
:104680000E94D621811520E8920711F480E031C004
:10469000EC0122968E010F5F1F4FCE010E94B121C7
:1046A000882311F0E801F6CFC8010E94B121182F2C
:1046B000CE0102960E94B121212F30E0382B309399
:1046C000D7062093D6068E010D5F1F4FC3E8D2E0B8
:1046D0008091D6069091D7069E0123583240281724
:1046E00039073CF4C8010E94B12189930F5F1F4F25
:1046F000EFCFDF91CF911F910F910895FC0188E0DA
:1047000090E030E8A585B6854C9124892095242336
:104710002C93A385B4852389432F462321F04C9104
:10472000422B4C9304C04C91209524232C93A585B7
:10473000B6852C914489242B2C933695019711F73B
:104740000895CF93DF93EC01EF85F88980819D89EF
:10475000892B8083E989FA8990818E8980958923C4
:104760008083EF85F88990818D8980958923808366
:10477000CE010E947E23EF85F88980819D89892B57
:104780008083DF91CF9108951F93CF93DF93EC0146
:10479000162F1C821D8261E088850E94BA2861E084
:1047A0008A850E94BA288A85992787FD9095FC0101
:1047B000E454F84FE491F0E0EE0FFF1FE652F84F9B
:1047C00025913491388B2F87FC01E855F84F84915F
:1047D0008D8B8885992787FD9095FC01E454F84FCF
:1047E000E491F0E0EE0FFF1FE652F84F259134916F
:1047F0003A8B298BFC01E855F84F84918E8B61E050
:104800008E810E94BA2861E08F810E94BA288F8130
:10481000992787FD9095FC01E454F84FE491F0E06E
:10482000EE0FFF1FE652F84F259134913E872D87FA
:10483000FC01E855F84F84918C8B8E81992787FD78
:104840009095FC01E454F84FE491F0E0EE0FFF1F67
:10485000E652F84F259134913C872B87FC01E855AF
:10486000F84F84918B8B61E089850E94BA2861E0C2
:1048700089850E94F32861E070E080E090E00E946A
:10488000FF2760E089850E94F3286AE070E080E0FD
:1048900090E00E94FF2761E089850E94F3286EEA7C
:1048A000CE010E94A12365EDCE010E94A12360E804
:1048B000CE010E94A12368EACE010E94A1236FE3EA
:1048C000CE010E94A12363EDCE010E94A12360E0EE
:1048D000CE010E94A12360E4CE010E94A1236DE8D5
:1048E000CE010E94A123113011F460E101C064E106
:1048F000CE010E94A12360E2CE010E94A12362E0CA
:10490000CE010E94A12361EACE010E94A12368EC9E
:10491000CE010E94A1236AEDCE010E94A12362E193
:10492000CE010E94A12361E8CE010E94A123113093
:1049300011F46FE901C06FECCE010E94A12369ED73
:10494000CE010E94A123113011F462E201C061EF97
:10495000CE010E94A1236BEDCE010E94A12360E451
:10496000CE010E94A12364EACE010E94A12366EA3F
:10497000CE010E94A1236FEACE01DF91CF911F915A
:104980000C94A123EF92FF921F93CF93DF931F927A
:10499000CDB7DEB77C01483008F047E0862F65319F
:1049A00008F084E1F70184834583182F110F180F55
:1049B000110F612F6F70C70149830E94A123612FDE
:1049C00062956F706061C7010E94A1234981642FC5
:1049D000606BC7010F90DF91CF911F91FF90EF9017
:1049E0000C94A123CF93DF93EC01EF85F8898081AC
:1049F0009D89892B8083E989FA8980819E89892B09
:104A00008083EF85F88990818D89809589238083C3
:104A1000CE010E947E23EF85F88980819D89892BB4
:104A20008083DF91CF9108950F931F93CF93DF93EE
:104A3000EC0110E0412F60E0CE010E94C22400E0B2
:104A400060E0CE010E94F2240F5F0038C9F71F5FBB
:104A5000183081F740E060E0CE01DF91CF911F91E7
:104A60000F910C94C224EF92FF920F931F93CF9358
:104A7000DF93EC018C8185312CF58F5F8C8380EE88
:104A8000860F803608F06FE7605285E0689F7001FE
:104A90001124C701855E9B4F7C0100E010E0F70107
:104AA000E00FF11F6491CE010E94F2240F5F1F4FAF
:104AB00005301105A1F760E0CE010E94F22481E0EB
:104AC00090E002C080E090E0DF91CF911F910F91C4
:104AD000FF90EF90089520919A0730919B07909155
:104AE0009307D901A05FBE4F80919F074091A00717
:104AF000841304C09093930780E008958F5F8D32F4
:104B000008F080E0E82FF0E0EF55F84FE081809367
:104B10009F07EE2379F3E03F11F49160E5CFE03E8B
:104B200011F49260E1CF90FF0EC0E23111F49B7F4F
:104B300008C0E93511F4977F04C0E13111F491FD0B
:104B40009F7E9C7FD1CFE23111F49460CDCFE935C7
:104B500011F49860C9CFE13111F491FD906191FF9A
:104B600008C0EA54E43318F5F0E0E050FE4FE0816D
:104B70001FC094FF09C08C91882331F0E838B8F445
:104B8000F0E0EF5EFE4F08C0892F8C7041F0E838EE
:104B900070F4F0E0E857FF4FE20FF31F06C0E8386B
:104BA00030F4A9014E0F511DFA01E49101C0E0E07B
:104BB0009C7FEE2309F498CF909393078E2F08954E
:104BC000CF92DF92EF92FF920F931F93CF93DF93D9
:104BD00080919E070E942929EC010E94D027009114
:104BE00096071091970720919807309199076B01CC
:104BF0007C01C01AD10AE20AF30A970186010B3F31
:104C000011052105310520F01092950710929407A7
:104C100060939607709397078093980790939907EE
:104C2000909195078FEF890F883050F4DD2701C0F0
:104C3000CC0F8A95EAF7809194078C2B8093940788
:104C400081E0890F809395078B30B9F48091A0079C
:104C50008F5F8D3208F080E090919F07891749F0AF
:104C6000E82FF0E090919407EF55F84F90838093F0
:104C7000A0071092950710929407DF91CF911F9192
:104C80000F91FF90EF90DF90CF90089580919D0756
:104C900081110EC080919C0781110AC00E946B2572
:104CA000982F80939D0781E0911103C080E00895C3
:104CB00081E0089580919C07882319F010929C0749
:104CC00018C080919D07882319F010929D0702C09B
:104CD0000E946B2587FF0BC0982F9F73906890935D
:104CE0009C078295869586958370806C02C0882388
:104CF00011F090E008958FEF9FEF08950895CF93FE
:104D0000DF93D82FC62F80939E0750939B07409325
:104D10009A0762E08C2F0E94BA2862E08D2F0E94D1
:104D2000BA28C23031F0C33011F08FEF03C081E0F8
:104D300001C080E01092A00710929F078F3F41F0C2
:104D400042E050E060EE75E2DF91CF910C941827BD
:104D5000DF91CF910895DC01ED91FC910480F58104
:104D6000E02D099484E98093BC008091BC0084FD0F
:104D7000FCCF08956093BC002091BC0027FFFCCFBE
:104D80002091B900287FFC0122830895662311F049
:104D900064E801C064EC0E94BA268091BB000895CB
:104DA0001F93CF93DF93EC01162F64EA0E94BA267B
:104DB0008A81883011F0803161F41093BB0064E87F
:104DC000CE010E94BA269A8110FF05C081E090347E
:104DD00029F080E003C081E09831D9F7DF91CF91CD
:104DE0001F910895CF93DF93EC016093BB0064E8BB
:104DF0000E94BA2681E09A81983209F080E0DF9122
:104E0000CF91089528E332E0FC0131832083109292
:104E1000B9008CE08093B800662341F061E082E144
:104E20000E94F32861E083E10C94F328089508952B
:104E30008230E8F4E82FF0E0EE0FFF1FEC5FFE4F4A
:104E400071836083813041F0809169008C7F842B75
:104E500080936900E89A089580916900440F551F76
:104E6000440F551F837F842B80936900E99A08952E
:104E70001F920F920FB60F9211242F933F934F93CF
:104E80005F936F937F938F939F93AF93BF93EF93B2
:104E9000FF93E0910401F09105010995FF91EF91D5
:104EA000BF91AF919F918F917F916F915F914F9142
:104EB0003F912F910F900FBE0F901F9018951F924A
:104EC0000F920FB60F9211242F933F934F935F933E
:104ED0006F937F938F939F93AF93BF93EF93FF93C2
:104EE000E0910601F09107010995FF91EF91BF91C3
:104EF000AF919F918F917F916F915F914F913F9172
:104F00002F910F900FBE0F901F9018951F920F9228
:104F10000FB60F9211242F933F938F939F93AF93CC
:104F2000BF938091CF079091D007A091D107B09106
:104F3000D2073091CE0723E0230F2D3720F40196BE
:104F4000A11DB11D05C026E8230F0296A11DB11DAC
:104F50002093CE078093CF079093D007A093D107DB
:104F6000B093D2078091D3079091D407A091D50731
:104F7000B091D6070196A11DB11D8093D3079093E0
:104F8000D407A093D507B093D607BF91AF919F9157
:104F90008F913F912F910F900FBE0F901F901895FA
:104FA0002FB7F8946091CF077091D0078091D10707
:104FB0009091D2072FBF08953FB7F8948091D307FF
:104FC0009091D407A091D507B091D60726B5A89B9C
:104FD00005C02F3F19F00196A11DB11D3FBF6627E7
:104FE000782F892F9A2F620F711D811D911D42E02C
:104FF000660F771F881F991F4A95D1F708958F92E2
:105000009F92AF92BF92CF92DF92EF92FF926B018D
:105010007C010E94DC274B015C01C114D104E10436
:10502000F104F1F00E9491290E94DC2768197909A6
:105030008A099B09683E73408105910570F321E060
:10504000C21AD108E108F10888EE880E83E0981EA4
:10505000A11CB11CC114D104E104F10429F7DDCF76
:10506000FF90EF90DF90CF90BF90AF909F908F9088
:105070000895789484B5826084BD84B5816084BDD0
:1050800085B5826085BD85B5816085BDEEE6F0E0C1
:10509000808181608083E1E8F0E01082808182601D
:1050A0008083808181608083E0E8F0E0808181609E
:1050B0008083E1EBF0E0808184608083E0EBF0E0CE
:1050C000808181608083EAE7F0E080818460808372
:1050D000808182608083808181608083808180681C
:1050E00080831092C10008958E3008F08E50877032
:1050F0002091080190E4299F90011124822B809334
:105100007C0080917A00806480937A0080917A009C
:1051100086FDFCCF809178002091790090E0922B61
:105120000895833081F028F4813099F08230A1F025
:1051300008958730A9F08830B9F08430D1F4809197
:1051400080008F7D03C0809180008F7780938000E6
:10515000089584B58F7702C084B58F7D84BD08958E
:105160008091B0008F7703C08091B0008F7D8093D5
:10517000B0000895CF93DF9390E0FC01E855F84F1D
:105180002491FC01E454F84F8491882349F190E084
:10519000880F991FFC01EC51F84FA591B4918652EC
:1051A000984FFC01C591D4919FB7611108C0F89444
:1051B0008C91209582238C93888182230AC062304F
:1051C00051F4F8948C91322F309583238C938881FD
:1051D000822B888304C0F8948C91822B8C939FBF80
:1051E000DF91CF9108950F931F93CF93DF931F9279
:1051F000CDB7DEB7282F30E0F901EC56F84F849197
:10520000F901E855F84F1491F901E454F84F04916D
:105210000023C9F0882321F069830E9491286981C5
:10522000E02FF0E0EE0FFF1FE652F84FA591B4918A
:105230009FB7F8948C91611103C01095812301C030
:10524000812B8C939FBF0F90DF91CF911F910F9176
:105250000895CF93DF93282F30E0F901EC56F84FF3
:105260008491F901E855F84FD491F901E454F84FCD
:10527000C491CC2391F081110E949128EC2FF0E091
:10528000EE0FFF1FE053F84FA591B4912C912D2301
:1052900081E090E021F480E002C080E090E0DF91C6
:1052A000CF910895CF92DF92EF92FF920F931F93C9
:1052B000CF93DF937C016A01EB0100E010E00C1555
:1052C0001D0571F06991D701ED91FC910190F0817C
:1052D000E02DC7010995892B19F00F5F1F4FEFCF04
:1052E000C801DF91CF911F910F91FF90EF90DF9058
:1052F000CF900895DC01ED91FC910190F081E02DBB
:10530000099408950E9439280E9481290E94C504A9
:10531000C0E0D0E00E94F6042097E1F30E94000074
:10532000F9CF08955058BB27AA270ED0B1C1A2D1FA
:1053300030F0A7D120F031F49F3F11F41EF497C153
:105340000EF4E095E7FB64C1E92FB3D180F3BA17FF
:10535000620773078407950718F071F49EF5E2C1A0
:105360000EF4E0950B2EBA2FA02D0B01B901900180
:105370000C01CA01A0011124FF27591B99F0593FC4
:1053800050F4503E68F11A16F040A22F232F342F0C
:105390004427585FF3CF469537952795A795F0405A
:1053A0005395C9F77EF41F16BA0B620B730B840B6F
:1053B000BAF09150A1F0FF0FBB1F661F771F881F27
:1053C000C2F70EC0BA0F621F731F841F48F487957F
:1053D00077956795B795F7959E3F08F0B3CF93956E
:1053E000880F08F09927EE0F979587950895ECD0D0
:1053F00008F481E008950CD04BC143D140F03AD17C
:1054000030F021F45F3F19F003C151118CC12FC15D
:1054100050D198F39923C9F35523B1F3951B550B3C
:10542000BB27AA2762177307840738F09F5F5F4F77
:10543000220F331F441FAA1FA9F333D00E2E3AF0B8
:10544000E0E830D091505040E695001CCAF729D0D2
:10545000FE2F27D0660F771F881FBB1F2617370721
:105460004807AB07B0E809F0BB0B802DBF01FF2751
:1054700093585F4F2AF09E3F510568F0C9C053C151
:105480005F3FECF3983EDCF3869577956795B7958B
:10549000F7959F5FC9F7880F911D9695879597F9A6
:1054A0000895E1E0660F771F881FBB1F621773071F
:1054B0008407BA0720F0621B730B840BBA0BEE1F34
:1054C00088F7E095089504D06894B1112CC108952F
:1054D000F8D088F09F5790F0B92F9927B751A0F0D6
:1054E000D1F0660F771F881F991F1AF0BA95C9F778
:1054F00012C0B13081F016D1B1E0089513C1672F09
:10550000782F8827B85F39F0B93FCCF38695779527
:105510006795B395D9F73EF4909580957095619510
:105520007F4F8F4F9F4F0895E89409C097FB3EF43B
:1055300090958095709561957F4F8F4F9F4F9923E0
:10554000A9F0F92F96E9BB279395F695879577955E
:105550006795B795F111F8CFFAF4BB0F11F460FF1E
:105560001BC06F5F7F4F8F4F9F4F16C0882311F076
:1055700096E911C0772321F09EE8872F762F05C08A
:10558000662371F096E8862F70E060E02AF09A9525
:10559000660F771F881FDAF7880F9695879597F91A
:1055A0000895A9D080F09F3740F491110EF0BBC050
:1055B00060E070E080E89FEB089526F41B16611D03
:1055C000711D811D2BC045C0990F0008550FAA0BF6
:1055D000E0E8FEEF16161706E807F907C0F0121606
:1055E0001306E407F50798F0621B730B840B950B09
:1055F00039F40A2661F0232B242B252B21F408955E
:105600000A2609F4A140A6958FEF811D811D0895FA
:1056100097F99F6780E870E060E00895882371F44F
:10562000772321F09850872B762F07C0662311F43B
:1056300099270DC09051862B70E060E02AF09A9572
:10564000660F771F881FDAF7880F9695879597F969
:1056500008959F3F31F0915020F487957795679595
:10566000B795880F911D9695879597F908959FEFA7
:1056700080EC089500240A941616170618060906E9
:10568000089500240A9412161306140605060895B8
:10569000092E0394000C11F4882352F0BB0F40F440
:1056A000BF2B11F460FF04C06F5F7F4F8F4F9F4F80
:1056B000089557FD9058440F551F59F05F3F71F002
:1056C0004795880F97FB991F61F09F3F79F0879569
:1056D0000895121613061406551FF2CF4695F1DFF2
:1056E00008C0161617061806991FF1CF8695710582
:1056F000610508940895E5DFA0F0BEE7B91788F4C6
:10570000BB279F3860F41616B11D672F782F8827A6
:10571000985FF7CF869577956795B11D93959639E4
:10572000C8F30895E894BB2766277727CB0197F93C
:1057300008954ADF08F48FEF08950AD029ED3BE57C
:105740004EED5EE345C00EF084CF91CF689460CFFC
:10575000B8DFC8F39923D1F3C6F3DF93CF931F9338
:105760000F93FF92C92FDD2788232AF02197660F18
:10577000771F881FDAF720E030E040E85FEB9FE317
:10578000883920F0803E30F021968F77CCDDE0E242
:10579000F1E003C0C8DDEDE4F1E07DD08B01BE0196
:1057A000EC01FB2E6F5771097595771F880B990BCC
:1057B000BDDE28E132E741E35FE316D0AF2D98016B
:1057C000AE01FF900F911F91CF91DF91BDDD60CFB2
:1057D0000BD05ECF4FDF28F054DF18F0952309F08F
:1057E00017CF45CF11249FCF64DFA0F3959FD1F34E
:1057F000950F50E0551F629FF001729FBB27F00D7F
:10580000B11D639FAA27F00DB11DAA1F649F6627D3
:10581000B00DA11D661F829F2227B00DA11D621F22
:10582000739FB00DA11D621F839FA00D611D221FDC
:10583000749F3327A00D611D231F849F600D211DC0
:10584000822F762F6A2F11249F5750408AF0E1F063
:1058500088234AF0EE0FFF1FBB1F661F771F881FAC
:1058600091505040A9F79E3F510570F0D1CE5BCFCB
:105870005F3FECF3983EDCF3869577956795B79597
:10588000F795E7959F5FC1F7FE2B880F911D9695C1
:10589000879597F90895DF93CF931F930F93FF9206
:1058A000EF92DF927B018C01689405C0DA2EEF0144
:1058B0009BDFFE01E894A591259135914591559185
:1058C000AEF3EF0141DDFE019701A801DA9479F70B
:1058D000DF90EF90FF900F911F91CF91DF9108958E
:1058E00097FB072E16F4009407D077FD09D00E948D
:1058F000D62C07FC05D03EF4909581959F4F0895D6
:10590000709561957F4F0895A1E21A2EAA1BBB1BCB
:10591000FD010DC0AA1FBB1FEE1FFF1FA217B3077B
:10592000E407F50720F0A21BB30BE40BF50B661F91
:10593000771F881F991F1A9469F760957095809555
:1059400090959B01AC01BD01CF010895052E97FBF9
:105950001EF400940E94BD2C57FD07D00E94842C99
:1059600007FC03D04EF40C94BD2C50954095309517
:1059700021953F4F4F4F5F4F0895909580957095BB
:1059800061957F4F8F4F9F4F0895EE0FFF1F05903A
:10599000F491E02D09940E94EA2CA59F900DB49FEC
:1059A000900DA49F800D911D11240895AA1BBB1B6F
:1059B00051E107C0AA1FBB1FA617B70710F0A61B0F
:1059C000B70B881F991F5A95A9F780959095BC0130
:1059D000CD010895A29FB001B39FC001A39F700D98
:1059E000811D1124911DB29F700D811D1124911DE7
:1059F0000895A1E0B0E0EFEFFCE20C94C9336A0136
:105A0000102F322F283008F037E000E0232FA601B6
:105A100039830E94A230D6019C91292F28703981A8
:105A2000760190FF09C0211107C0BFEFEB1AFB0AF6
:105A30002DE2F601208313C011FF07C0FFEFEF1A1C
:105A4000FF0A4BE2D6014C9308C010FF06C0BFEF1F
:105A5000EB1AFB0A40E2F6014083211105C092FFD8
:105A60000DC06EEE77E002C066EF77E012FF02C075
:105A70006C5F7F4FC7010E94963149C0F701319694
:105A8000D60111962C91D7012C93213309F09F7EDA
:105A90003323D1F0AF01B6016E5F7F4F7B016EE221
:105AA000732F7E0DD7012D917D01DA016D93AD012C
:105AB0007E1511F0622FF6CF3150DF01A30FB11D1B
:105AC000FD01329611962C9312FF02C025E401C00D
:105AD00025E62083DF01129687FF04C09DE29183B3
